:1000000010C017C016C015C014C013C012C011C054
:1000100011C00FC00EC00DC00CC00BC00AC009C07B
:1000200008C011241FBECFE5D1E0DEBFCDBF69D02F
:1000300074C0E6CF1F920F920FB60F9211248F93C8
:100040009F93EF93FF938FEF8BBBE7E8F3E131973B
:10005000F1F700C000001BBAE7E8F3E13197F1F7D0
:1000600000C000008BBBE7E8F3E13197F1F700C077
:1000700000001BBAE7E8F3E13197F1F700C0000098
:100080008BBBE7E8F3E13197F1F700C000001BBA42
:10009000E7E8F3E13197F1F700C000008BBBE7E838
:1000A000F3E13197F1F700C000001BBAE7E8F3E194
:1000B0003197F1F700C000008BBBE7E8F3E131971F
:1000C000F1F700C000001BBAE7E8F3E13197F1F760
:1000D00000C000008BBB87E893E10197F1F700C0F7
:1000E00000001BBAE7E8F3E13197F1F700C0000028
:1000F000FF91EF919F918F910F900FBE0F901F90E6
:1001000018958CB181608CB98EB581608EBD1DBC97
:0E0110001CBC78948FEF8ABBFFCFF894FFCF12
:00000001FF
